:100000000C94BE000C94DB000C94DB000C94DB0021
:100010000C94DB000C94DB000C94DB000C94DB00F4
:100020000C94DB000C94DB000C94CD040C94DB00EE
:100030000C94DB000C94B2030C948C030C94DB0046
:100040000C94DB000C94DB000C94DB000C94DB00C4
:100050000C94DB002B434D543A20220041542B4397
:100060004D47533D220041542B434D47463D3120DF
:100070000041542B43434C4B3F200041542B4343FE
:100080004C4B3D0041542B434243200041542B43F1
:10009000535120002B435245473A20302C31004128
:1000A000542B435245473F20004552524F52004F78
:1000B0004B00415445300041544530200043616CB1
:1000C0006C205265616479002B4350494E3A2052AE
:1000D00045414459002B4346554E3A203100524485
:1000E000590046726F6D204348415247452D4F4E8F
:1000F0004C59204D4F444520746F204E4F524D4176
:100100004C004348415247452D4F4E4C59204D4FCE
:100110004445004D4158204741533A202F004D415E
:10012000582048554D3A202F004D41582054454DF8
:10013000503A202F004741533A202F0048554D3A5E
:10014000202F0054454D503A202F004552522F0089
:100150004F4B2F004D6F76656D656E742F004352C7
:10016000493B004745543B005345543A20005379DE
:100170007374656D2053746172742F0011241FBE57
:10018000CFE5D8E0DEBFCDBF10E0A0E6B0E0E0E80C
:10019000F9E102C005900D92A03BB107D9F713E039
:1001A000A0EBB0E001C01D92AA38B107E1F70E94B0
:1001B000020A0C94BE0C0C940000F894A79A83E3F6
:1001C0009DEC0197F1F7A79881EC90E00197F1F78A
:1001D0009F9B03C020E030E007C08BE491E00197D3
:1001E000F1F7789421EB30E0C901089580FF02C057
:1001F000DB9A01C0DB9881FF02C0DC9A01C0DC9869
:1002000082FF02C0DD9A01C0DD9883FF02C0DE9A42
:100210000895DE9808951F93182FD69AD59AD49AE8
:10022000D39ADA9A82958F700E94F600DA98DA9A59
:10023000812F0E94F600DA988BE491E00197F1F7A4
:100240001F910895D9980E940B010895D99A0E9490
:100250000B010895982F8058883008F49770892FE3
:100260000E9426010895CF93DF93EC0108C0892FE7
:100270008058883008F49770892F0E942601999140
:100280009923A9F7DF91CF9108951F93CF93DF931F
:10029000EB0190E0877090700896880F880F880FA8
:1002A0000E94220110E089910E9426011F5F1830F0
:1002B000D1F7DF91CF911F910895823031F08330D3
:1002C00031F0813029F480E403C080E101C080E591
:1002D0006058860F0E942201089581E00E94220149
:1002E0008BEE94E30197F1F708950F931F93D69A3D
:1002F000D59AD49AD39AD19AD29AD998DA9880E09A
:1003000092EA0197F1F7D998D89880E30E94F60015
:1003100087E49CE20197F1F780E30E94F60004E194
:1003200011E0C8010197F1F780E20E94F600C801D0
:100330000197F1F788E20E94220188E00E942201E1
:100340008CE00E94220186E00E9422010E946D0141
:100350001F910F910895DF93CF93CDB7DEB76197CB
:100360000FB6F894DEBF0FBECDBFBE016F5F7F4FEB
:1003700040E150E00E94790C0E94330161960FB673
:10038000F894DEBF0FBECDBFCF91DF910895DF930C
:10039000CF93CDB7DEB761970FB6F894DEBF0FBE2F
:1003A000CDBFBE016F5F7F4F4AE050E00E94790CE5
:1003B0000E94330161960FB6F894DEBF0FBECDBF29
:1003C000CF91DF9108959F92AF92BF92CF92DF922B
:1003D000EF92FF920F931F93CF93DF93EC01F62ED2
:1003E000642F453010F4742F01C070E00091850235
:1003F00010918602A2E2BA2EFDE0AF2EEAE09E2E18
:100400005AE1E52E44E1C42E41E0D42EFEC0472F30
:1004100050E0FA01EE0FFF1FE40FF51FEE0FFF1F74
:10042000EE0FFF1FE852FF4F80818B3209F0EAC0C8
:1004300020E030E08091D2008F5F8093D200A091C5
:10044000D200B0E0F801E20FF31FE491A95BBE4FC8
:10045000EC932F5F3F4F2930310561F7DA01AA0F86
:10046000BB1FA40FB51FAA0FBB1FAA0FBB1FA8520B
:10047000BF4F20E030E08091D2008F5F8093D200A8
:10048000E091D200F0E08D91E95BFE4F80832F5F19
:100490003F4F2C30310579F78091D2008F5F8093E8
:1004A000D200E091D200F0E0E95BFE4FB082809193
:1004B000D2008F5F8093D200E091D200F0E0E95B40
:1004C000FE4FA0828091D2008F5F8093D200E09196
:1004D000D200F0E0E95BFE4F9082559A9091D500F2
:1004E0008091D2009817D1F7E091B600ED5FF0E06F
:1004F000E757FD4F80818E33B9F7E091B600EC5F8E
:10050000F0E0E757FD4F8081803271F780914E0215
:100510008093B60090E020C08091D2008F5F8093DE
:10052000D200FF2059F4A091D200B0E0FE01E90F03
:10053000F11DE491A95BBE4FEC930DC081E0F8166C
:1005400051F4E091D200F0E0DE01A90FB11D8C91D1
:10055000E95BFE4F80839F5FE091D200EF5FF0E0A8
:10056000E95BFE4F80818F32B9F68091D2008F5FB8
:100570008093D200E091D200F0E0E95BFE4FE08290
:10058000559AE091B600E15FF0E0E757FD4F8081BA
:100590008F3449F4E091B600E05FF0E0E757FD4F9B
:1005A00080818B3421F1E091B600E05FF0E0E75705
:1005B000FD4F80818F3449F4E091B600EF5EF0E0AA
:1005C000E757FD4F80818B3491F0E091B600EF5EEC
:1005D000F0E0E757FD4F80818F3499F6E091B60047
:1005E000EE5EF0E0E757FD4F80818B3451F688E5F1
:1005F00092E0F6013197F1F70197D9F780914E0219
:100600008093B600653020F07F5F753008F4FFCE30
:1006100081E0DF91CF911F910F91FF90EF90DF90DC
:10062000CF90BF90AF909F900895CF93DF93BC0180
:1006300040E08091D2008F5F8093D200A091D200E1
:10064000B0E0C42FD0E09B012C0F3D1FF901849135
:10065000A95BBE4F8C932196C60FD71FFE018491D4
:100660008032E1F48091D2008F5F8093D200E091DC
:10067000D200F0E0E95BFE4F8DE080838091D200F4
:100680008F5F8093D200E091D200F0E0E95BFE4FF3
:100690008AE08083559ADF91CF9108954F5FC9CF4B
:1006A000BC0120914E023091B600E091B600EF5FA0
:1006B000F0E0E757FD4F80818D3061F5E091B600A5
:1006C000EE5FF0E0E757FD4F80818A3019F58091A9
:1006D000B6008217F9F0432F4D5F20E030E0E42FA1
:1006E000F0E0E757FD4F80818D3029F44F5F409354
:1006F000B60081E008958081FB01E20FF11DE491D5
:100700008E1741F42F5F3F4F81E02030380711F002
:100710004F5FE5CF80E008951F920F920FB60F92C2
:1007200011248F939F93EF93FF939091D200809128
:10073000D500981769F08091D5008F5F8093D50020
:10074000E091D500F0E0E95BFE4F80818CB901C0FB
:100750005598FF91EF919F918F910F900FBE0F9041
:100760001F9018951F920F920FB60F9211248F931E
:100770009F93EF93FF939CB180918903833030F472
:10078000809189038F5F8093890309C0E0914E02B5
:10079000EF5FE0934E02F0E0E757FD4F9083FF914B
:1007A000EF919F918F910F900FBE0F901F90189512
:1007B00080918102909182020E94150380ED97E062
:1007C00024E131E0F9013197F1F70197D9F7E09190
:1007D000B600EC5DF0E0E757FD4F80818F3409F003
:1007E000DAC0E091B600EB5DF0E0E757FD4F8081A5
:1007F0008B3409F0D0C0E091B600E55FF0E0E75738
:10080000FD4FE081E091B600E45FF0E0E757FD4F77
:100810008081805380934702E091B600E25FF0E070
:10082000E757FD4FE081E091B600E15FF0E0E75768
:10083000FD4F8081805380934802E091B600EF5EC7
:10084000F0E0E757FD4FE081E091B600EE5EF0E0AA
:10085000E757FD4F8081805380934902E091B600B5
:10086000EC5EF0E0E757FD4FE081E091B600EB5E13
:10087000F0E0E757FD4F8081805380934A02E0917A
:10088000B600E95EF0E0E757FD4FE081E091B60089
:10089000E85EF0E0E757FD4F8081805380934B0284
:1008A000E091B600E65EF0E0E757FD4FE081E091B1
:1008B000B600E55EF0E0E757FD4F808180538093FE
:1008C0004C0280914E028093B60080E060E00E946E
:1008D0005D01809149028A3020F480E090E00E941E
:1008E000C7018091490290E00E94C70180E690E034
:1008F0000E943301809148028A3020F480E090E029
:100900000E94C7018091480290E00E94C70180E6E2
:1009100090E00E943301809147028A3020F480E009
:1009200090E00E94C7018091470290E00E94C701B9
:1009300081E060E00E945D0180914A028A3020F4EB
:1009400080E090E00E94C70180914A0290E00E94FE
:10095000C70182E690E00E94330180914B028A3009
:1009600020F480E090E00E94C70180914B0290E06B
:100970000E94C70182E690E00E94330180914C0200
:100980008A3020F480E090E00E94C70180914C0200
:1009900090E00E94C70181E008951F920F920FB668
:1009A0000F9211242F933F934F935F936F937F93F5
:1009B0008F939F93AF93BF93EF93FF938091D70053
:1009C0008F5F8093D7008091D700823309F05BC09E
:1009D0001092D70080914C028F5F80934C028C3331
:1009E00009F040C010924C0280914B028F5F8093BF
:1009F0004B028C3311F510924B0280914A028F5FAB
:100A000080934A02883121F410924A020E94D8034E
:100A100081E060E00E945D0180914A028A3020F40A
:100A200080E090E00E94C70180914A0290E00E941D
:100A3000C70182E690E00E94330181E063E00E94FA
:100A40005D0180914B028A3020F480E090E00E94AA
:100A5000C70180914B0290E00E94C70182E690E0BE
:100A60000E94330181E066E00E945D0180914C02AA
:100A70008A3020F480E090E00E94C70180914C020F
:100A800090E00E94C701FF91EF91BF91AF919F91BC
:100A90008F917F916F915F914F913F912F910F9027
:100AA0000FBE0F901F901895FF920F931F93CF9337
:100AB000DF93F82EE091B600EF5FF0E0E757FD4FCF
:100AC00090814091BA005091BB00FA01849198172F
:100AD00009F0A4C184EF91E024E131E0F9013197FC
:100AE000F1F70197D9F78091B6008F5F8093B60038
:100AF00021E030E08091B600F901E80FF11DF070BF
:100B0000E757FD4F8081FA01E20FF31FE4918E1742
:100B100049F090E04091D30064E610E050E0C1E07D
:100B2000D0E039C12430310529F48091B6008C5FC2
:100B30008093B6002F5F3F4F25303105D9F691E005
:100B4000E9CFE091B600E90FF0E0E757FD4F808173
:100B5000843509F0D0C09F5FE091B600E90FF0E066
:100B6000E757FD4F8081823509F0C5C09F5FE09156
:100B7000B600E90FF0E0E757FD4F20812153243004
:100B800008F05DC09F5FE091B600E90FF0E0E75725
:100B9000FD4F80818D3309F0AEC0392F3F5F8091CA
:100BA000B600A32FB0E0FD01E80FF11DF070E7578C
:100BB000FD4F8081813341F4CE0102C0880F991F1F
:100BC0002A95E2F7182B12C08091B600A80FB11D2C
:100BD000B070A757BD4F8C91803341F4CE0102C055
:100BE000880F991F2A95E2F780951823932F9F5F0E
:100BF0008091B600A92FB0E0FD01E80FF11DF07063
:100C0000E757FD4F80818B33C1F48091B600A80F68
:100C1000B11DB070A757BD4F8C91803239F48091CF
:100C2000B6008D5F890F8093B60065C08091B600D5
:100C30008E5F890F8093B6005AC09F5F5CC02430DE
:100C400009F059C09F5FE091B600E90FF0E0E75767
:100C5000FD4F80818D3309F04EC09F5F13C080919E
:100C6000B600A80FB11DB070A757BD4F8C9180532F
:100C7000869F802D1124580F862F6AE00E946D0CEC
:100C8000682F9E2F8091B600A92FB0E0FD01E80FDC
:100C9000F11DF070E757FD4F8081E92FEF5F85323E
:100CA000F1F69E2F8091B600AE2FB0E0FD01E80F67
:100CB000F11DF070E757FD4F80818B33D1F48091A7
:100CC000B600A80FB11DB070A757BD4F8C918032F0
:100CD00039F48091B6008D5F890F8093B6000AC009
:100CE0008091B6008E5F890F8093B600452F90E00B
:100CF00002C09F5F452FE091B600E90FF0E0E75793
:100D0000FD4F8081823509F046C09F5FE091B600BB
:100D1000E90FF0E0E757FD4F80818534E1F59F5FF3
:100D2000E091B600E90FF0E0E757FD4F8081815375
:100D3000843088F59F5FE091B600E90FF0E0E75757
:100D4000FD4F80818D3339F59F5F8091B600A92FCB
:100D5000B0E0FD01E80FF11DF070E757FD4F808115
:100D60008B33C1F48091B600A80FB11DB070A757A6
:100D7000BD4F8C91803239F48091B6008D5F890F20
:100D80008093B60008C08091B6008E5F890F809373
:100D9000B60004C09F5F992309F0D3CE4093D300DF
:100DA0000E946D01812F90E00E94C70180E20E94A5
:100DB0002A018091D30090E00E94C70180E20E9446
:100DC0002A018091B60090E00E94C70180E20E9453
:100DD0002A0180914E0290E00E94C70180E197E2D3
:100DE00024E131E0F9013197F1F70197D9F71FB903
:100DF00080914E028093B6002091C200A5E1B1E03F
:100E0000822F9091C300FC016E2F621B849131965A
:100E10008F3211F401E004C08D93F6CF60E000E062
:100E2000E091B600EF5FF0E0E757FD4F9081209131
:100E3000BC003091BD00F9018491981709F009C1F7
:100E40008091B6008F5F8093B60041E050E08091C2
:100E5000B600FA01E80FF11DF070E757FD4F8081F1
:100E6000F901E40FF51FE4918E1709F0F2C0433049
:100E7000510529F48091B6008D5F8093B600E09112
:100E8000B600EF5FF0E0E757FD4F8081803229F434
:100E90008091B6008F5F8093B600E091B600EF5F5F
:100EA000F0E0E757FD4F80818D3029F48091B60046
:100EB0008E5F8093B6004F5F5F4F4430510539F627
:100EC000FDC1809117018E3231F08EE280931701BF
:100ED000613009F462E04091C6005091C700A62F2E
:100EE000B0E0AB5EBE4F20E030E0FA01E20FF31F4E
:100EF00084918F32D9F5362F320F4091AA00E32F1B
:100F0000F0E0EB5EFE4F842F6AE00E946D0C805D86
:100F10008083232F2F5FE22FF0E0EB5EFE4F842FC4
:100F20000E946D0C905D90832F5FE22FF0E0EB5EEE
:100F3000FE4F8AE280832F5FE22FF0E0EB5EFE4FF0
:100F400083E480832F5FE22FF0E0EB5EFE4F8CE2C4
:100F500080832F5F4091C8005091C9003B5FA32F51
:100F6000B0E0AB5EBE4F80E090E004C08D932F5F99
:100F70003F4FBBCFFA01E80FF91F34913F32A1F583
:100F8000322F380F4091AB00E32FF0E0EB5EFE4FC5
:100F9000842F6AE00E946D0C805D8083232F2F5F79
:100FA000E22FF0E0EB5EFE4F842F0E946D0C905D0F
:100FB00090832F5FE22FF0E0EB5EFE4F85E28083AF
:100FC0002F5FE22FF0E0EB5EFE4F8CE280832F5F1D
:100FD0004091CA005091CB003C5FA32FB0E0AB5EC4
:100FE000BE4F80E090E003C03D930196C3CFFA016D
:100FF000E80FF91F34913F3249F5280F3091B000C6
:10100000E22FF0E0EB5EFE4F832F6AE00E946D0C52
:10101000805D80832F5FE22FF0E0EB5EFE4F832F39
:101020000E946D0C905D90832F5FE22FF0E0EB5EED
:10103000FE4F85E280832F5FE22FF0E0EB5EFE4FF4
:101040008BE38083622F6F5F11E004C03D930196B4
:10105000CECF10E0E091B600EF5FF0E0E757FD4F34
:1010600090812091BE003091BF00F90184919817C2
:1010700009F009C18091B6008F5F8093B60041E00E
:1010800050E08091B600FA01E80FF11DF070E757CB
:10109000FD4F8081F901E40FF51FE4918E1709F0EF
:1010A000F2C04330510529F48091B6008D5F8093E2
:1010B000B600E091B600EF5FF0E0E757FD4F8081AA
:1010C000803229F48091B6008F5F8093B600E09162
:1010D000B600EF5FF0E0E757FD4F80818D3029F4D7
:1010E0008091B6008E5F8093B6004F5F5F4F4430B3
:1010F000510539F6E9C0809117018E3231F08EE248
:1011000080931701613009F462E04091CC00509166
:10111000CD00A62FB0E0AB5EBE4F20E030E0FA017C
:10112000E20FF31F84918F32D9F5362F320F4091A1
:10113000AC00E32FF0E0EB5EFE4F842F6AE00E94EC
:101140006D0C805D8083232F2F5FE22FF0E0EB5E3C
:10115000FE4F842F0E946D0C905D90832F5FE22FD5
:10116000F0E0EB5EFE4F8AE280832F5FE22FF0E03B
:10117000EB5EFE4F83E480832F5FE22FF0E0EB5EB7
:10118000FE4F8CE280832F5F4091CE005091CF00C4
:101190003B5FA32FB0E0AB5EBE4F80E090E004C0A9
:1011A0008D932F5F3F4FBBCFFA01E80FF91F3491AA
:1011B0003F32A1F5322F380F4091AD00E32FF0E020
:1011C000EB5EFE4F842F6AE00E946D0C805D808391
:1011D000232F2F5FE22FF0E0EB5EFE4F842F0E9463
:1011E0006D0C905D90832F5FE22FF0E0EB5EFE4F81
:1011F00085E280832F5FE22FF0E0EB5EFE4F8CE212
:1012000080832F5F4091D0005091D1003C5FA32F8D
:10121000B0E0AB5EBE4F80E090E003C03D9301962E
:10122000C3CFFA01E80FF91F34913F3249F5280F77
:101230003091AE00E22FF0E0EB5EFE4F832F6AE0CC
:101240000E946D0C805D80832F5FE22FF0E0EB5EEB
:10125000FE4F832F0E946D0C905D90832F5FE22FD5
:10126000F0E0EB5EFE4F85E280832F5FE22FF0E03F
:10127000EB5EFE4F8BE38083622F6F5F81E004C0E3
:101280003D930196CECF80E0002321F4112311F489
:10129000882371F0E62FF0E0EB5EFE4F8FE2808353
:1012A00085E191E061E04F2D0E94E301811181E031
:1012B000DF91CF911F910F91FF90089580911501BB
:1012C0008F3409F008CEFDCD809115018F3409F0DF
:1012D0001CCF11CF1F93CF93DF9390914E0280913B
:1012E000B600981709F489C08CEB92E024E131E054
:1012F000F9013197F1F70197D9F7409187025091A1
:10130000880220E030E0E091B600F0E03396E20F92
:10131000F31FF070E757FD4F8081FA01E20FF31FD2
:10132000E4918E1709F069C02630310529F48091C7
:10133000B600865F8093B6002F5F3F4F27303105A0
:1013400011F7C8EDD0E01FEF40E050E061E0888188
:101350008B3289F5DA01AA0FBB1FA40FB51FAA0FA4
:10136000BB1FAA0FBB1FA852BF4F20E030E0742F55
:101370008091B600F901E80FF11DF070E757FD4FBD
:1013800090818C91981711F080E016C02B303105B8
:1013900039F48091B600825F8093B600172F61E028
:1013A0002F5F3F4F11962C30310511F7862F6623A2
:1013B00019F091E01CC0862F4F5F5F4F2C9645308F
:1013C000510511F4682FF5CF682FC1CFE091B60019
:1013D000E90FF0E0E757FD4F8081823239F48091C8
:1013E000B600875E890F8093B60003C09F5F6623B7
:1013F00069F7812F0E94540501C080E0DF91CF91F1
:101400001F910895CF93DF938EE691E09093B900FA
:101410008093B80088E691E09093BB008093BA0077
:1014200083E691E09093BD008093BC008EE591E04F
:101430009093BF008093BE0084E591E09093C1003B
:101440008093C00080E591E09093C3008093C20038
:101450008BE491E09093C5008093C40083E491E015
:101460009093C7008093C6008CE391E09093C900ED
:101470008093C80085E391E09093CB008093CA00ED
:1014800089E291E09093CD008093CC008EE191E0D1
:101490009093CF008093CE0083E191E09093D100B0
:1014A0008093D00082E091E0909364028093630285
:1014B00082EE90E090936602809365028EED90E05C
:1014C000909368028093670285ED90E090936A02A2
:1014D0008093690288EC90E090936C0280936B0299
:1014E0008DEB90E090936E0280936D0287EB90E01D
:1014F0009093700280936F0282EB90E0909372025F
:10150000809371028FEA90E090937402809373024B
:1015100089EA90E090937602809375028FE990E0DB
:10152000909378028093770284E990E090937A0216
:10153000809379028CE890E090937C0280937B0208
:1015400084E890E090937E0280937D028BE790E0A8
:101550009093800280937F0281E790E090938202D3
:101560008093810286E690E09093840280938302C8
:101570008CE590E0909386028093850284E590E06C
:1015800090938802809387028BE28093E40084E347
:101590008093E50088E38093E60087E38093E7008B
:1015A00092E39093E80081E38093E9008093EA005E
:1015B00085E38093EB0086E38093EC0083E38093E4
:1015C000ED0080E38093EE009093EF00D79ADF9ACE
:1015D000BC9A84B3836484BBA89A82B3886F82BBAD
:1015E00010BC83E289B98AB188618AB980B58668FE
:1015F00080BD8AB1806A8AB987B3806A87BB8DB1A2
:1016000080658DB91FB883B7886083BF83B7856055
:1016100083BF88ED8CBF0E9475010E946D0184E636
:1016200090E00E94330181E066E00E945D0185E761
:1016300090E00E943301B99AC49A80E49FE124E1CA
:1016400031E0F9013197F1F70197D9F7C49880EDAE
:1016500097E024E131E0F9013197F1F70197D9F7EB
:10166000789480916702909168020E9450038823C9
:10167000C1F38091690290916A020E94500388230D
:10168000C1F380916B0290916C020E9450038823F9
:10169000C1F380916D0290916E020E9450038823E5
:1016A000C1F30E946D0189E790E00E9433018091AF
:1016B0006F02909170020E9415038091B6008250D3
:1016C0008093B60080917102909172020E94500343
:1016D0008823C1F380917302909174020E94500399
:1016E0008823C1F388E893E124E131E0F9013197DF
:1016F000F1F70197D9F781E060E00E945D0185E88C
:1017000090E00E94330188E893E124E131E0F9019F
:101710003197F1F70197D9F780917702909178028C
:101720000E9415038091790290917A020E945003E1
:101730008823C1F380917302909174020E94500338
:101740008823C1F30E946D018FE890E00E9433016D
:1017500088ED9EE024E131E0F9013197F1F701973E
:10176000D9F780918302909184020E9415038091A1
:101770007302909174020E9450038823C1F38091F8
:101780007B0290917C020E94150380ED97E024E19A
:1017900031E0F9013197F1F70197D9F781E060E085
:1017A0000E945D01E091B600EF5EF0E0E757FD4F6B
:1017B00080818F3499F5E091B600EE5EF0E0E75756
:1017C000FD4F80818B3451F5E091B600E75FF0E08A
:1017D000E757FD4F20818AE0289F90011124205E69
:1017E0002093D600E091B600E65FF0E0E757FD4FAA
:1017F00080818053820F8093D60080914E02809327
:10180000B60088E990E00E9433018091D60090E014
:101810000E94C7018EE990E00E94330180917D0211
:1018200090917E020E94150380ED97E024E131E063
:10183000F9013197F1F70197D9F7E091B600EA5E27
:10184000F0E0E757FD4F80818F34A9F5E091B600B5
:10185000E95EF0E0E757FD4F80818B3461F5E09160
:10186000B600E55FF0E0E757FD4F20818AE0289F52
:1018700090011124205E2093B700E091B600E45F50
:10188000F0E0E757FD4F80818053820F8093B700CF
:101890000E946D0181EA90E00E9433018091B700BF
:1018A00090E00E94C70187EA90E00E943301809196
:1018B0004E028093B6000E946D010E94D803C4E1DD
:1018C000D1E00E946A0980934D0288E893E1FE010D
:1018D0003197F1F70197D9F7F4CF991B79E004C05C
:1018E000991F961708F0961B881F7A95C9F780955F
:1018F0000895FB019F01E8944230C4F04532B4F4EE
:101900004A3029F497FB1EF4909581959F4F642FE0
:1019100077270E94AA0C805D8A330CF0895D819341
:10192000CB010097A1F716F45DE251931082C90133
:101930000C949A0CDC01FC01672F71917723E1F77D
:10194000329704C07C916D9370836291AE17BF078C
:10195000C8F30895AA1BBB1B51E107C0AA1FBB1FF8
:10196000A617B70710F0A61BB70B881F991F5A952B
:10197000A9F780959095BC01CD010895F894FFCF0B
:101980002F003A00446F6D6F777920737465726F22
:10199000776E696B0047534D0053494D39303044E1
:1019A0003A204F4B004543484F3A204F4646004CA3
:1019B0004F473A204F4B20005349473A2000202000
:1019C000004241543A2000252000193223323200CF
:00000001FF
