:100000000C94CF000C94EC000C94EC000C94EC00DD
:100010000C94EC000C94EC000C94EC000C94EC00B0
:100020000C94EC000C94EC000C94E8090C94EC009B
:100030000C94EC000C94CD080C94A7080C94EC00E4
:100040000C94EC000C94EC000C94EC000C94EC0080
:100050000C94EC002B434D543A20220041542B4386
:100060004D47533D220041542B434D47463D3120DF
:100070000041542B43434C4B3F200041542B4343FE
:100080004C4B3D0041542B434243200041542B43F1
:10009000535120002B435245473A20302C31004128
:1000A000542B435245473F20004552524F52004F78
:1000B0004B00415445300041544530200043616CB1
:1000C0006C205265616479002B4350494E3A2052AE
:1000D00045414459002B4346554E3A203100524485
:1000E000590046726F6D204348415247452D4F4E8F
:1000F0004C59204D4F444520746F204E4F524D4176
:100100004C004348415247452D4F4E4C59204D4FCE
:1001100044450047415320414C41524D2F00485522
:100120004D20414C41524D2F0054454D5020414CE3
:1001300041524D2F004D4158204741533A202F0046
:100140004D41582048554D3A202F004D41582054DC
:10015000454D503A202F004741533A202F00485533
:100160004D3A202F0054454D503A202F0045525211
:100170002F004F4B2F004D6F76656D656E742F000D
:100180004352493B004745543B005345543A2000F5
:1001900053797374656D2053746172742F00112448
:1001A0001FBECFE5D8E0DEBFCDBF10E0A0E6B0E0D7
:1001B000E4EAFBE102C005900D92AC3BB107D9F730
:1001C00013E0ACEBB0E001C01D92AF39B107E1F72D
:1001D0000E94740A0C94D00D0C9400001F9310928E
:1001E000BD001092BE001092BF001092C000F894A3
:1001F000A79AAF9A88EE93E024E131E0F9013197B4
:10020000F1F70197D9F7AF9886E692EC0197F1F7ED
:10021000AF9AA79883E98A95F1F79F9957C02DED7A
:1002200030E0C9010197F1F79F9B50C0C9010197C8
:10023000F1F760E070E01EE6A1E0B0E033E92BC02A
:100240009F9BFECF812F8A95F1F79F9B0EC0208147
:10025000CD01042E02C0880F991F0A94E2F7282BC3
:100260002083832F8A95F1F70BC02081CD01042EC6
:1002700002C0880F991F0A94E2F780958223808339
:10028000415050408FEF4F3F5807D1F66F5F7F4F7F
:100290006530710531F047E050E0FB01E354FF4F5A
:1002A000CFCF3091BD008091BE009091BF002091D2
:1002B000C000830F890F820F8093C2009091C1000C
:1002C000891721F478942DEB30E002C020E030E073
:1002D000C9011F91089580FF02C0DB9A01C0DB981D
:1002E00081FF02C0DC9A01C0DC9882FF02C0DD9A67
:1002F00001C0DD9883FF02C0DE9A0895DE9808955C
:100300001F93182FD69AD59AD49AD39ADA9A8295AF
:100310008F700E946B01DA98DA9A812F0E946B012C
:10032000DA988BE491E00197F1F71F910895D9983D
:100330000E9480010895D99A0E9480010895982F03
:100340008058883008F49770892F0E949B01089587
:10035000CF93DF93EC0108C0892F8058883008F4D0
:100360009770892F0E949B0199919923A9F7DF919A
:10037000CF9108951F93CF93DF93EB0190E08770A7
:1003800090700896880F880F880F0E94970110E0E0
:1003900089910E949B011F5F1830D1F7DF91CF91A7
:1003A0001F910895823031F0833031F0813029F48B
:1003B00088E203C084E101C084E56058860F0E9492
:1003C0009701089581E00E9497018BEE94E30197D5
:1003D000F1F708950F931F93D69AD59AD49AD39A8A
:1003E000D19AD29AD998DA9880E092EA0197F1F7F7
:1003F000D998D89880E30E946B0187E49CE201972A
:10040000F1F780E30E946B0104E111E0C80101975C
:10041000F1F780E20E946B01C8010197F1F788E2D1
:100420000E94970188E00E9497018CE00E9497014A
:1004300086E00E9497010E94E2011F910F910895AA
:10044000DF93CF93CDB7DEB761970FB6F894DEBFD9
:100450000FBECDBFBE016F5F7F4F40E150E00E94F5
:100460008B0D0E94A80161960FB6F894DEBF0FBEF7
:10047000CDBFCF91DF910895DF93CF93CDB7DEB796
:1004800061970FB6F894DEBF0FBECDBFBE016F5FA0
:100490007F4F4AE050E00E948B0D0E94A8016196B8
:1004A0000FB6F894DEBF0FBECDBFCF91DF91089598
:1004B000AF92BF92CF92DF92EF92FF920F931F9372
:1004C000CF93DF93EC01942F453010F4742F01C0CB
:1004D00070E000919A0210919B0242E2B42E3DE03E
:1004E000A32E2AE0D22E8AE1C82EB4E1EB2EB1E091
:1004F000FB2EEBC0472F50E0FA01EE0FFF1FE40F79
:10050000F51FEE0FFF1FEE0FFF1FE351FF4F80811E
:100510008B3209F0D7C020E030E08091E6008F5F99
:100520008093E600A091E600B0E0F801E20FF31F2F
:10053000E491A45ABE4FEC932F5F3F4F2930310511
:1005400061F7DA01AA0FBB1FA40FB51FAA0FBB1FCB
:10055000AA0FBB1FA351BF4F20E030E08091E600FF
:100560008F5F8093E600E091E600F0E08D91E45A21
:10057000FE4F80832F5F3F4F2C30310579F78091FC
:10058000E6008F5F8093E600E091E600F0E0E45A39
:10059000FE4FB0828091E6008F5F8093E600E0918D
:1005A000E600F0E0E45AFE4FA0828091E6008F5F03
:1005B0008093E600E091E600F0E0E45AFE4FD0823E
:1005C000559AE091C300ED5FF0E0E256FD4F808167
:1005D0008E33B9F7E091C300EC5FF0E0E256FD4FD7
:1005E0008081803271F7809163028093C30020E0A4
:1005F0008091E6008F5F8093E600662329F4FE0178
:10060000E20FF11D849106C0613061F4FE01E20F3A
:10061000F11D80818F3241F0E091E600F0E0E45A74
:10062000FE4F80832F5FE4CF8091E6008F5F809341
:10063000E600E091E600F0E0E45AFE4FC082559AF1
:10064000E091C300E15FF0E0E256FD4F80818F341E
:1006500049F4E091C300E05FF0E0E256FD4F808195
:100660008B3421F1E091C300E05FF0E0E256FD4FF2
:1006700080818F3449F4E091C300EF5EF0E0E256F0
:10068000FD4F80818B3491F0E091C300EF5EF0E08C
:10069000E256FD4F80818F3499F6E091C300EE5E03
:1006A000F0E0E256FD4F80818B3451F628E532E0D0
:1006B000F7013197F1F721503040D1F78091630273
:1006C0008093C300953020F07F5F753008F412CF1F
:1006D00081E0DF91CF911F910F91FF90EF90DF901C
:1006E000CF90BF90AF900895FF920F931F93F82E75
:1006F000E091C300EF5FF0E0E256FD4F9081409142
:10070000C8005091C900FA018491981709F0A5C159
:1007100084EF91E024E131E0F9013197F1F701979D
:10072000D9F78091C3008F5F8093C30021E030E050
:100730008091C300F901E80FF11DF070E256FD4F02
:100740008081FA01E20FF31FE4918E1739F030E057
:1007500040E050E01AE061E070E05FC12430310514
:1007600029F48091C3008C5F8093C3002F5F3F4FBB
:1007700025303105E9F631E0EBCFE091C300E30F1E
:10078000F0E0E256FD4F8081843509F0CBC03F5F39
:10079000E091C300E30FF0E0E256FD4F8081823527
:1007A00009F0C0C03F5FE091C300E30FF0E0E25604
:1007B000FD4F90819153943008F059C03F5FE09114
:1007C000C300E30FF0E0E256FD4F80818D3309F066
:1007D000A9C0232F2F5F8091C300A22FB0E0FD019D
:1007E000E80FF11DF070E256FD4F8081813341F436
:1007F000FB0102C0EE0FFF1F9A95E2F74E2B13C0CC
:100800008091C300A80FB11DB070A256BD4F8C914E
:10081000803349F4FB0102C0EE0FFF1F9A95E2F707
:10082000CF0180954823922F9F5F8091C300A92F0D
:10083000B0E0FD01E80FF11DF070E256FD4F808140
:100840008B3399F48091C300A80FB11DB070A256EC
:10085000BD4F8C91803221F48091C3008D5F03C025
:100860008091C3008E5F890F54C0392F5AC09430D5
:1008700009F058C03F5FE091C300E30FF0E0E2569B
:10088000FD4F80818D3309F04DC03F5FE091C30083
:10089000A32FB0E0F0E03296EA0FFB1FF070E256B3
:1008A000FD4F80818532C9F48091C300A80FB11D2E
:1008B000B070A256BD4F8C913F5FE091C300E30F33
:1008C000F0E0E256FD4F20815051520F819FC00150
:1008D0001124580F3F5F5093E7003F5F8091C300A2
:1008E000A32FB0E0FD01E80FF11DF070E256FD4FBF
:1008F00080818B33B1F48091C300A80FB11DB0701B
:10090000A256BD4F8C91803241F48091C3008D5F1F
:10091000830F8093C30030E005C08091C3008E5FD9
:10092000F7CF3F5FE091C300E30FF0E0E256FD4FE9
:100930008081823509F071C03F5FE091C300E30F11
:10094000F0E0E256FD4F8081853409F066C03F5FDC
:10095000E091C300E30FF0E0E256FD4F9081892F54
:100960008153843008F059C03F5FE091C300E30F2A
:10097000F0E0E256FD4F80818D3309F04EC09D526C
:100980003F5F8091C300A32FB0E0FD01E80FF11D90
:10099000F070E256FD4F8081813341F4FB0102C0CB
:1009A000EE0FFF1F9A95E2F74E2B13C08091C30004
:1009B000A80FB11DB070A256BD4F8C91803349F481
:1009C000FB0102C0EE0FFF1F9A95E2F7CF01809561
:1009D00048233F5F8091C300A32FB0E0FD01E80FE3
:1009E000F11DF070E256FD4F80818B33A9F48091A8
:1009F000C300A80FB11DB070A256BD4F8C918032BC
:100A000021F48091C3008D5F03C08091C3008E5F8D
:100A1000830F8093C30004C03F5F332309F0ADCE42
:100A20004FB989E995E10197F1F7929A92988091EF
:100A300063028093C3002091D000AAE2B1E0822F2C
:100A40009091D100FC016E2F621B849131968F3200
:100A500011F401E004C08D93F6CF60E000E0E09176
:100A6000C300EF5FF0E0E256FD4F90812091CA0095
:100A70003091CB00F9018491981709F012C184EFED
:100A800091E044E151E0FA013197F1F70197D9F78C
:100A90008091C3008F5F8093C30041E050E080915C
:100AA000C300FA01E80FF11DF070E256FD4F80819E
:100AB000F901E40FF51FE4918E1709F0F2C04330FD
:100AC000510529F48091C3008D5F8093C300E091AC
:100AD000C300EF5FF0E0E256FD4F8081803229F4E1
:100AE0008091C3008F5F8093C300E091C300EF5FEC
:100AF000F0E0E256FD4F80818D3029F48091C300F3
:100B00008E5F8093C3004F5F5F4F4430510539F6CD
:100B100003C280912C018E3231F08EE280932C0141
:100B2000613009F462E04091D4005091D500A62FC5
:100B3000B0E0A65DBE4F20E030E0FA01E20FF31F07
:100B400084918F32D9F5362F320F4091B700E32FC1
:100B5000F0E0E65DFE4F842F6AE00E947F0D805D2D
:100B60008083232F2F5FE22FF0E0E65DFE4F842F7E
:100B70000E947F0D905D90832F5FE22FF0E0E65D95
:100B8000FE4F8AE280832F5FE22FF0E0E65DFE4FAA
:100B900083E480832F5FE22FF0E0E65DFE4F8CE27E
:100BA00080832F5F4091D6005091D7003B5FA32FE9
:100BB000B0E0A65DBE4F80E090E004C08D932F5F53
:100BC0003F4FBBCFFA01E80FF91F34913F32A1F537
:100BD000322F380F4091B800E32FF0E0E65DFE4F72
:100BE000842F6AE00E947F0D805D8083232F2F5F1A
:100BF000E22FF0E0E65DFE4F842F0E947F0D905DB6
:100C000090832F5FE22FF0E0E65DFE4F85E2808368
:100C10002F5FE22FF0E0E65DFE4F8CE280832F5FD6
:100C20004091D8005091D9003C5FA32FB0E0A65D61
:100C3000BE4F80E090E003C03D930196C3CFFA0120
:100C4000E80FF91F34913F3249F5280F3091BC006D
:100C5000E22FF0E0E65DFE4F832F6AE00E947F0DF9
:100C6000805D80832F5FE22FF0E0E65DFE4F832FF3
:100C70000E947F0D905D90832F5FE22FF0E0E65D94
:100C8000FE4F85E280832F5FE22FF0E0E65DFE4FAE
:100C90008BE38083622F6F5F11E004C03D93019668
:100CA000CECF10E0E091C300EF5FF0E0E256FD4FE1
:100CB00090812091CC003091CD00F901849198175A
:100CC00009F012C184EF91E044E151E0FA0131975B
:100CD000F1F70197D9F78091C3008F5F8093C3002C
:100CE00041E050E08091C300FA01E80FF11DF0707F
:100CF000E256FD4F8081F901E40FF51FE4918E1754
:100D000009F0F2C04330510529F48091C3008D5F92
:100D10008093C300E091C300EF5FF0E0E256FD4F27
:100D20008081803229F48091C3008F5F8093C3005B
:100D3000E091C300EF5FF0E0E256FD4F80818D301F
:100D400029F48091C3008E5F8093C3004F5F5F4F93
:100D50004430510539F6E6C080912C018E3231F0D5
:100D60008EE280932C01613009F462E04091DA0058
:100D70005091DB00A62FB0E0A65DBE4F20E030E032
:100D8000FA01E20FF31F84918F32D9F5362F320F1B
:100D90004091B900E32FF0E0E65DFE4F842F6AE05A
:100DA0000E947F0D805D8083232F2F5FE22FF0E074
:100DB000E65DFE4F842F0E947F0D905D90832F5F34
:100DC000E22FF0E0E65DFE4F8AE280832F5FE22FA4
:100DD000F0E0E65DFE4F83E480832F5FE22FF0E0DA
:100DE000E65DFE4F8CE280832F5F4091DC005091E6
:100DF000DD003B5FA32FB0E0A65DBE4F80E090E03A
:100E000004C08D932F5F3F4FBBCFFA01E80FF91F4E
:100E100034913F32A1F5322F380F4091BA00E32FC1
:100E2000F0E0E65DFE4F842F6AE00E947F0D805D5A
:100E30008083232F2F5FE22FF0E0E65DFE4F842FAB
:100E40000E947F0D905D90832F5FE22FF0E0E65DC2
:100E5000FE4F85E280832F5FE22FF0E0E65DFE4FDC
:100E60008CE280832F5F4091DE005091DF003C5F79
:100E7000A32FB0E0A65DBE4F80E090E003C03D939D
:100E80000196C3CFFA01E80FF91F34913F3249F5BB
:100E9000280F3091BB00E22FF0E0E65DFE4F832F7C
:100EA0006AE00E947F0D805D80832F5FE22FF0E07B
:100EB000E65DFE4F832F0E947F0D905D90832F5F34
:100EC000E22FF0E0E65DFE4F85E280832F5FE22FA8
:100ED000F0E0E65DFE4F8BE38083622F6F5F81E081
:100EE00004C03D930196CECF80E0002321F411236E
:100EF00011F4882369F0E62FF0E0E65DFE4F8FE203
:100F000080838AE291E061E04F2D0E94580281E0E7
:100F10001F910F91FF90089580912A018F3409F05D
:100F200002CEF7CD80912A018F3409F01FCF14CF64
:100F30001F93CF93DF93909163028091C300981722
:100F400009F489C08CEB92E024E131E0F90131979A
:100F5000F1F70197D9F740919C0250919D0220E052
:100F600030E0E091C300F0E03396E20FF31FF07041
:100F7000E256FD4F8081FA01E20FF31FE4918E17D4
:100F800009F069C02630310529F48091C300865FDD
:100F90008093C3002F5F3F4F2730310511F7CDEE0F
:100FA000D0E061E01FEF40E050E088818B3289F5AE
:100FB000DA01AA0FBB1FA40FB51FAA0FBB1FAA0FF0
:100FC000BB1FA351BF4F20E030E0742F8091C300BE
:100FD000F901E80FF11DF070E256FD4F90818C9100
:100FE000981711F080E016C02B30310539F480914C
:100FF000C300825F8093C300172F61E02F5F3F4FD4
:1010000011962C30310511F7862F662319F091E0E7
:101010001CC0862F4F5F5F4F2C964530510511F451
:10102000682FF5CF682FC1CFE091C300E90FF0E042
:10103000E256FD4F8081823239F48091C300875E91
:10104000890F8093C30003C09F5F662369F7812FD8
:101050000E94740301C080E0DF91CF911F91089539
:10106000CF93DF93BC0140E08091E6008F5F8093D7
:10107000E600A091E600B0E0C42FD0E09B012C0F69
:101080003D1FF9018491A45ABE4F8C932196C60F3F
:10109000D71FFE0184918032E1F48091E6008F5FDA
:1010A0008093E600E091E600F0E0E45AFE4F8DE028
:1010B00080838091E6008F5F8093E600E091E600F8
:1010C000F0E0E45AFE4F8AE08083559ADF91CF9199
:1010D00008954F5FC9CFBC01209163023091C300D6
:1010E000E091C300EF5FF0E0E256FD4F80818D306C
:1010F00061F5E091C300EE5FF0E0E256FD4F8081C4
:101100008A3019F58091C3008217F9F0432F4D5FA3
:1011100020E030E0E42FF0E0E256FD4F80818D309A
:1011200029F44F5F4093C30081E008958081FB0163
:10113000E20FF11DE4918E1741F42F5F3F4F81E0E4
:101140002030380711F04F5FE5CF80E008951F92FF
:101150000F920FB60F9211248F939F93EF93FF93EB
:101160009091E6008091EA00981769F08091EA007A
:101170008F5F8093EA00E091EA00F0E0E45AFE4FCE
:1011800080818CB901C05598FF91EF919F918F910B
:101190000F900FBE0F901F9018951F920F920FB6D1
:1011A0000F9211248F939F93EF93FF939CB18091A3
:1011B0009E03833030F480919E038F5F80939E0363
:1011C00009C0E0916302EF5FE0936302F0E0E25652
:1011D000FD4F9083FF91EF919F918F910F900FBEE4
:1011E0000F901F90189580919602909197020E94FF
:1011F000300880ED97E024E131E0F9013197F1F713
:101200000197D9F7E091C300EC5DF0E0E256FD4FA5
:1012100080818F3409F0DAC0E091C300EB5DF0E02B
:10122000E256FD4F80818B3409F0D0C0E091C300BD
:10123000E55FF0E0E256FD4FE081E091C300E45F3E
:10124000F0E0E256FD4F8081805380935C02E09194
:10125000C300E25FF0E0E256FD4FE081E091C300A1
:10126000E15FF0E0E256FD4F8081805380935D02A4
:10127000E091C300EF5EF0E0E256FD4FE081E091C7
:10128000C300EE5EF0E0E256FD4F80818053809314
:101290005E02E091C300EC5EF0E0E256FD4FE081BB
:1012A000E091C300EB5EF0E0E256FD4F8081805399
:1012B00080935F02E091C300E95EF0E0E256FD4FEB
:1012C000E081E091C300E85EF0E0E256FD4F8081EE
:1012D000805380936002E091C300E65EF0E0E25646
:1012E000FD4FE081E091C300E55EF0E0E256FD4F86
:1012F0008081805380936102809163028093C30058
:1013000080E060E00E94D20180915E028A3020F489
:1013100080E090E00E943C0280915E0290E00E949A
:101320003C0280E690E00E94A80180915D028A3034
:1013300020F480E090E00E943C0280915D0290E009
:101340000E943C0280E690E00E94A80180915C022D
:101350008A3020F480E090E00E943C0280915C02A0
:1013600090E00E943C0280E069E00E94D2018091FE
:101370005F028A3020F480E090E00E943C0280917D
:101380005F0290E00E943C0282E690E00E94A80189
:10139000809160028A3020F480E090E00E943C025C
:1013A0008091600290E00E943C0282E690E00E9400
:1013B000A801809161028A3020F480E090E00E94D0
:1013C0003C028091610290E00E943C0281E008951D
:1013D0001F920F920FB60F9211242F933F934F93AA
:1013E0005F936F937F938F939F93AF93BF93EF938D
:1013F000FF938091EC008F5F8093EC008091EC0074
:10140000823309F05BC01092EC00809161028F5F23
:10141000809361028C3309F040C010926102809188
:1014200060028F5F809360028C3311F5109260022E
:1014300080915F028F5F80935F02883121F4109268
:101440005F020E94F30880E069E00E94D20180916F
:101450005F028A3020F480E090E00E943C0280919C
:101460005F0290E00E943C0282E690E00E94A801A8
:1014700080E06CE00E94D201809160028A3020F40A
:1014800080E090E00E943C028091600290E00E9427
:101490003C0282E690E00E94A80180E06FE00E949A
:1014A000D201809161028A3020F480E090E00E94B5
:1014B0003C028091610290E00E943C029A9B02C033
:1014C000A99A01C0A998FF91EF91BF91AF919F9107
:1014D0008F917F916F915F914F913F912F910F90DD
:1014E0000FBE0F901F9018950F931F93CF93DF930C
:1014F00080E991E09093C7008093C6008AE891E06C
:101500009093C9008093C80085E891E09093CB0048
:101510008093CA0080E891E09093CD008093CC0046
:1015200086E791E09093CF008093CE0082E791E030
:101530009093D1008093D0008DE691E09093D300FA
:101540008093D20085E691E09093D5008093D400FB
:101550008EE591E09093D7008093D60087E591E0E7
:101560009093D9008093D8008BE491E09093DB00B6
:101570008093DA0080E491E09093DD008093DC00BA
:1015800085E391E09093DF008093DE0089E291E0B3
:101590009093E1008093E0008EE191E09093E3006E
:1015A0008093E20083E191E09093E5008093E40072
:1015B00082E091E0909379028093780282EE90E04D
:1015C00090937B0280937A028EED90E090937D025F
:1015D00080937C0285ED90E090937F0280937E0261
:1015E00088EC90E090938102809380028DEB90E0F4
:1015F000909383028093820287EB90E09093850220
:101600008093840282EB90E090938702809386021D
:101610008FEA90E0909389028093880289EA90E0B3
:1016200090938B0280938A028FE990E090938D02D1
:1016300080938C0284E990E090938F0280938E02D5
:101640008CE890E0909391028093900284E890E07F
:1016500090939302809392028BE790E0909395028F
:101660008093940281E790E0909397028093960292
:1016700086E690E090939902809398028CE590E042
:1016800090939B0280939A0284E590E090939D0250
:1016900080939C028BE28093F90084E38093FA00AC
:1016A00088E38093FB0087E38093FC0092E39093B0
:1016B000FD0081E38093FE008093FF0085E380932B
:1016C000000186E38093010183E38093020180E3BC
:1016D0008093030190930401D79ADF9ABC9A84B354
:1016E000836484BBA89A82B3886F82BB10BC83E2F8
:1016F00089B98AB188618AB980B5866880BD8AB1A6
:10170000806A8AB98A9A87B3806A87BB8DB18365FC
:101710008DB91FB889E995E10197F1F7929A9298EE
:1017200083B7886083BF83B7856083BF88ED8CBF34
:101730000E94EA010E94E20184E690E00E94A80172
:1017400081E066E00E94D20185E790E00E94A80156
:10175000B99AC49A80E49FE124E131E0F90131971C
:10176000F1F70197D9F7C49880ED97E024E131E0D3
:10177000F9013197F1F70197D9F7789480917C02BC
:1017800090917D020E946B088823C1F380917E02B4
:1017900090917F020E946B088823C1F380918002A0
:1017A000909181020E946B088823C1F3809182028C
:1017B000909183020E946B088823C1F30E94E2018A
:1017C00089E790E00E94A8018091840290918502AF
:1017D0000E9430088091C30082508093C3008091A2
:1017E0008602909187020E946B088823C1F3809142
:1017F0008802909189020E946B088823C1F388E8CF
:1018000093E124E131E0F9013197F1F70197D9F73C
:1018100081E060E00E94D20185E890E00E94A8018A
:1018200088E893E124E131E0F9013197F1F701977C
:10183000D9F780918C0290918D020E94300880919E
:101840008E0290918F020E946B088823C1F38091D1
:101850008802909189020E946B088823C1F382E07C
:1018600060E00E94D2018FE890E00E94A80188ED1C
:101870009EE024E131E0F9013197F1F70197D9F7C2
:1018800080919802909199020E943008809188027C
:10189000909189020E946B088823C1F38091900285
:1018A000909191020E94300880ED97E024E131E0B0
:1018B000F9013197F1F70197D9F783E060E00E94D1
:1018C000D201E091C300EF5EF0E0E256FD4F80816F
:1018D0008F3499F5E091C300EE5EF0E0E256FD4FE3
:1018E00080818B3451F5E091C300E75FF0E0E25670
:1018F000FD4F20818AE0289F90011124205E2093D3
:10190000EB00E091C300E65FF0E0E256FD4F80811E
:101910008053820F8093EB00809163028093C30019
:1019200088E990E00E94A8018091EB0090E00E947D
:101930003C028EE990E00E94A80180919202909171
:1019400093020E94300880ED97E024E131E0F90134
:101950003197F1F70197D9F7E091C300EA5EF0E023
:10196000E256FD4F80818F34A9F5E091C300E95E16
:10197000F0E0E256FD4F80818B3461F5E091C300C9
:10198000E55FF0E0E256FD4F20818AE0289F90015C
:101990001124205E2093C400E091C300E45FF0E0D6
:1019A000E256FD4F80818053820F8093C4000E94D5
:1019B000E20181EA90E00E94A8018091C40090E0D9
:1019C0000E943C0287EA90E00E94A8018091630295
:1019D0008093C3000E94E2010E94F30889B78260ED
:1019E00089BF8091C6009091C70060E04FEF0E94D0
:1019F00058028823B1F311E002E0C4E1D1E00E9473
:101A00009807809362029091B7008091B90089177E
:101A100050F48091C500882331F4A99A8091E000A8
:101A20009091E1000FC09091B8008091BA008917A1
:101A300078F48091C500882359F4A99A8091E20036
:101A40009091E30060E04FEF0E9458021093C500B0
:101A50009091BC008091BB00891780F48091C500F3
:101A6000882361F4A99A8091E4009091E50060E0F8
:101A70004FEF0E9458021093C50007C08091C50027
:101A8000813019F4A9980093C5008091C5008F5F3B
:101A90008093C500883711F41092C5000E94EE00B3
:101AA000892B21F18091BD008093B8008091BF0007
:101AB0008093B70083E060E00E94D2018AEA90E060
:101AC0000E94A8018091B70090E00E943C0280E251
:101AD0000E949F0181EB90E00E94A8018091B800D4
:101AE00090E00E943C0280E20E949F0188E893E11E
:101AF000FE013197F1F7019709F481CFF9CF991BD6
:101B000079E004C0991F961708F0961B881F7A95F4
:101B1000C9F780950895FB019F01E8944230C4F015
:101B20004532B4F44A3029F497FB1EF49095819520
:101B30009F4F642F77270E94BC0D805D8A330CF085
:101B4000895D8193CB010097A1F716F45DE2519373
:101B50001082C9010C94AC0DDC01FC01672F71915E
:101B60007723E1F7329704C07C916D937083629183
:101B7000AE17BF07C8F30895AA1BBB1B51E107C0EE
:101B8000AA1FBB1FA617B70710F0A61BB70B881F0D
:101B9000991F5A95A9F780959095BC01CD0108959C
:041BA000F894FFCFE7
:101BA4002F003A00446F6D6F777920737465726FFC
:101BB400776E696B0047534D0053494D39303044BB
:101BC4003A204F4B004543484F3A204F4646004C7D
:101BD4004F473A204F4B20005349473A20002020DA
:101BE400004241543A200025200054454D503A20EB
:0C1BF4000048554D3A20001928233C32CF
:00000001FF
