:100000000C942A000C943C000C943C000C943C0092
:100010000C943C000C943C000C943C000C943C0070
:100020000C943C000C943C000C943C000C943C0060
:100030000C943C000C943C000C943C000C943C0050
:100040000C943C000C943C000C943C000C943C0040
:100050000C943C0011241FBECFE5D8E0DEBFCDBF1D
:1000600010E0A0E6B0E001C01D92A536B107E1F7AF
:100070000E9421010C947B010C940000F894A79A33
:100080008EE892E10197F1F7A79887E18A95F1F759
:100090009F9B03C020E030E006C088E28A95F1F71C
:1000A000789420E630E0C901089580FF02C0DB9A11
:1000B00001C0DB9881FF02C0DC9A01C0DC9882FF9E
:1000C00002C0DD9A01C0DD9883FF02C0DE9A089568
:1000D000DE9808951F93182FD69AD59AD49AD39A5A
:1000E000DA9A82958F700E945500DA98DA9A812FF9
:1000F0000E945500DA9888E28A95F1F71F910895D9
:10010000D9980E946A000895D99A0E946A000895B9
:10011000982F8058883008F49770892F0E948400A7
:100120000895CF93DF93EC0108C0892F8058883061
:1001300008F49770892F0E94840099919923A9F758
:10014000DF91CF9108951F93CF93DF93EB0190E060
:10015000877090700896880F880F880F0E94800023
:1001600010E089910E9484001F5F1830D1F7DF9161
:10017000CF911F910895823031F0833031F081307A
:1001800029F480E403C080E101C080E56058860F57
:100190000E948000089581E00E94800089EC94E034
:1001A0000197F1F708951F93D69AD59AD49AD39AC6
:1001B000D19AD29AD998DA9886EA9EE00197F1F717
:1001C000D998D89880E30E94550081E094E0019787
:1001D000F1F780E30E94550011E2812F8A95F1F733
:1001E00080E20E9455001A95F1F788E20E94800093
:1001F00088E00E9480008CE00E94800086E00E94DF
:1002000080000E94CB001F910895DF93CF93CDB75C
:10021000DEB761970FB6F894DEBF0FBECDBFBE014B
:100220006F5F7F4F4AE050E00E9436010E949100CC
:1002300061960FB6F894DEBF0FBECDBFCF91DF91B0
:100240000895D79ADF9ABC9A84B3836484BB85B33C
:10025000836085BB82B3886F82BB87B3806A87BBAC
:100260008DB180658DB980E090E00895FB019F011C
:10027000E8944230C4F04532B4F44A3029F497FB94
:100280001EF4909581959F4F642F77270E946701F8
:10029000805D8A330CF0895D8193CB010097A1F7D3
:1002A00016F45DE251931082C9010C945701DC01F0
:1002B000FC01672F71917723E1F7329704C07C919D
:1002C0006D9370836291AE17BF07C8F30895AA1BA0
:1002D000BB1B51E107C0AA1FBB1FA617B70710F031
:1002E000A61BB70B881F991F5A95A9F78095909563
:0A02F000BC01CD010895F894FFCF82
:00000001FF
